{
  "contractName": "Bookmark",
  "abi": [
    {
      "constant": true,
      "inputs": [],
      "name": "owner",
      "outputs": [
        {
          "internalType": "address",
          "name": "",
          "type": "address"
        }
      ],
      "payable": false,
      "stateMutability": "view",
      "type": "function"
    },
    {
      "constant": false,
      "inputs": [
        {
          "internalType": "string",
          "name": "show",
          "type": "string"
        }
      ],
      "name": "bookmark",
      "outputs": [
        {
          "internalType": "string",
          "name": "",
          "type": "string"
        }
      ],
      "payable": false,
      "stateMutability": "nonpayable",
      "type": "function"
    },
    {
      "constant": true,
      "inputs": [],
      "name": "getBookmarks",
      "outputs": [
        {
          "internalType": "string",
          "name": "",
          "type": "string"
        }
      ],
      "payable": false,
      "stateMutability": "view",
      "type": "function"
    }
  ],
  "bytecode": "0x608060405234801561001057600080fd5b506103ca806100206000396000f3fe608060405234801561001057600080fd5b50600436106100415760003560e01c8063272431601461004657806345d9bd15146101615780638da5cb5b14610169575b600080fd5b6100ec6004803603602081101561005c57600080fd5b81019060208101813564010000000081111561007757600080fd5b82018360208201111561008957600080fd5b803590602001918460018302840111640100000000831117156100ab57600080fd5b91908080601f01602080910402602001604051908101604052809392919081815260200183838082843760009201919091525092955061018d945050505050565b6040805160208082528351818301528351919283929083019185019080838360005b8381101561012657818101518382015260200161010e565b50505050905090810190601f1680156101535780820380516001836020036101000a031916815260200191505b509250505060405180910390f35b6100ec61024f565b6101716102ee565b604080516001600160a01b039092168252519081900360200190f35b3360009081526020818152604090912082516060926101b09291908501906102fd565b50336000908152602081815260409182902080548351601f6002600019610100600186161502019093169290920491820184900484028101840190945280845290918301828280156102435780601f1061021857610100808354040283529160200191610243565b820191906000526020600020905b81548152906001019060200180831161022657829003601f168201915b50505050509050919050565b336000908152602081815260409182902080548351601f60026000196101006001861615020190931692909204918201849004840281018401909452808452606093928301828280156102e35780601f106102b8576101008083540402835291602001916102e3565b820191906000526020600020905b8154815290600101906020018083116102c657829003601f168201915b505050505090505b90565b6001546001600160a01b031681565b828054600181600116156101000203166002900490600052602060002090601f016020900481019282601f1061033e57805160ff191683800117855561036b565b8280016001018555821561036b579182015b8281111561036b578251825591602001919060010190610350565b5061037792915061037b565b5090565b6102eb91905b80821115610377576000815560010161038156fea265627a7a723158206adfb8f7792174a8309ada112f8c811530a6eddb1a4245d81c970d2928f0ac5964736f6c63430005100032",
  "source": "// SPDX-License-Identifier: GPL-3.0\npragma solidity >=0.4.0 <0.9.0;\n\ncontract Bookmark {\n    mapping (address => string) private bookmarks;\n    address public owner;\n\n    function onlyOwner() private {\n        owner = msg.sender;\n    }\n\n    function bookmark(string memory show) public returns(string memory){\n        bookmarks[msg.sender] = show;\n        return bookmarks[msg.sender];\n    }\n\n    function getBookmarks() public view returns (string memory){\n        return bookmarks[msg.sender];\n    }\n}",
  "sourcePath": "/Users/asadiqbal/Documents/Blockchain Development/Netflix-on-blockchain/contracts/Bookmark.sol",
  "compiler": {
    "name": "solc",
    "version": "0.5.16+commit.9c3226ce.Emscripten.clang"
  },
  "schemaVersion": "3.4.1",
  "updatedAt": "2021-06-18T16:49:29.432Z",
  "networkType": "ethereum",
  "devdoc": {
    "methods": {}
  },
  "userdoc": {
    "methods": {}
  }
}